:020000040800F2
:1000000060060020B1010008B9010008BB0100082A
:10001000BD010008BF010008C10100080000000088
:10002000000000000000000000000000C301000804
:10003000C501000800000000C7010008C901000850
:10004000CB010008CB010008CB010008CB01000860
:10005000CB010008CB010008CB010008CB01000850
:10006000CB010008CB010008CB0100086D0200089D
:100070008D020008AD020008CD020008ED02000864
:100080000D0300082D030008CB010008CB01000878
:10009000CB010008CB010008CB010008CB01000810
:1000A000CB010008CB010008CB010008CB01000800
:1000B000CB010008CB010008CB010008CB010008F0
:1000C000CB010008CB010008CB010008CB010008E0
:1000D000CB010008CB010008CB010008CB010008D0
:1000E000CB010008CB010008CB010008CB010008C0
:1000F000CB010008CB010008CB010008CB010008B0
:10010000CB010008CB010008CB010008CB0100089F
:10011000CB010008CB010008CB010008CB0100088F
:100120004D0300086D03000891030008B1030008A7
:1001300000F002F800F02CF80AA090E8000C8244CD
:100140008344AAF10107DA4501D100F021F8AFF2AA
:10015000090EBAE80F0013F0010F18BFFB1A43F0A5
:1001600001031847800500009005000000230024CB
:1001700000250026103A28BF78C1FBD8520728BFB7
:1001800030C148BF0B6070471FB51FBD10B510BD13
:1001900000F031F81146FFF7F7FF00F08DFA00F09C
:1001A0004FF803B4FFF7F2FF03BC00F057F800006C
:1001B0000948804709480047FEE7FEE7FEE7FEE7FB
:1001C000FEE7FEE7FEE7FEE7FEE7FEE70448054937
:1001D000054A064B70470000590600083101000827
:1001E0006000002060060020600200206002002005
:1001F000704770477047754600F02CF8AE46050012
:100200006946534620F00700854618B020B5FFF731
:10021000DDFFBDE820404FF000064FF000074FF033
:1002200000084FF0000B21F00701AC46ACE8C00914
:10023000ACE8C009ACE8C009ACE8C0098D4670471D
:1002400010B50446AFF300802046BDE81040FFF72C
:10025000A8BF000000487047000000200149182096
:10026000ABBEFEE7260002007047704710B5054898
:10027000006800F00F04034844602046FFF7F5FFD4
:1002800010BD0000000002407047000010B5054896
:100290000068C0F303142001024948602046FFF7BC
:1002A000F3FF10BD000002407047000010B5054884
:1002B0000068C0F303242002024948602046FFF78B
:1002C000F3FF10BD000002407047000010B5054864
:1002D0000068C0F303342003024948602046FFF75A
:1002E000F3FF10BD000002407047000010B5054844
:1002F0000068C0F303442004024948602046FFF729
:10030000F3FF10BD000002407047000010B5054823
:100310000068C0F303542005024948602046FFF7F7
:10032000F3FF10BD000002407047000010B5054803
:100330000068C0F303642006024948602046FFF7C6
:10034000F3FF10BD000002407047000010B50548E3
:10035000006800F00F040348001D04602046FFF70A
:10036000F3FF10BD000402407047000010B50648BE
:100370000068C0F3031420010349091D08602046EA
:10038000FFF7F2FF10BD00000004024070470000BC
:1003900010B506480068C0F3032420020349091D74
:1003A00008602046FFF7F2FF10BD00000004024085
:1003B00010B50C480068C0F3033434B12003094978
:1003C000091D0860204600F00FF806480068C0F3D9
:1003D000034434B120040349091D0860204600F09D
:1003E00004F810BD000402407047704701B502E0F8
:1003F0000098401E009000980028F9D108BD2DE912
:10040000F04102460025002600200023002400279A
:1004100091F803C00CF00F0591F803C00CF0100C1C
:10042000BCF1000F03D091F802C04CEA050591F829
:1004300000C0BCF1000F31D0146800202BE04FF059
:10044000010C0CFA00F3B1F800C00CEA03069E425E
:1004500020D183004FF00F0C0CFA03F7BC4305FAD0
:1004600003FC4CEA040491F803C0BCF1280F06D148
:100470004FF0010C0CFA00FCC2F814C00AE091F82D
:1004800003C0BCF1480F05D14FF0010C0CFA00FC81
:10049000C2F810C0401C0828D1D31460B1F800C0C5
:1004A000BCF1FF0F34DD546800202EE000F1080C91
:1004B0004FF0010808FA0CF3B1F800C00CEA03068B
:1004C0009E4221D183004FF00F0C0CFA03F7BC437E
:1004D00005FA03FC4CEA040491F803C0BCF1280FB0
:1004E00005D100F1080C08FA0CF8C2F8148091F854
:1004F00003C0BCF1480F07D100F1080C4FF0010810
:1005000008FA0CF8C2F81080401C0828CED35460BA
:10051000BDE8F081416170470161704708B5012174
:10052000402000F015F84020ADF8000010208DF8B4
:10053000030003208DF8020069460448FFF75FFFBF
:1005400040210248FFF7E8FF08BD00000018014005
:1005500029B1064A92690243044B9A6104E0034AB6
:1005600092698243014B9A6170470000001002407B
:1005700010B500F001F810BD0CB5002001900090FE
:100580003348006840F480303149086000BF30488B
:10059000006800F4003000900198401C0190009821
:1005A00018B90198B0F5A06FF1D12948006800F49E
:1005B000003010B10120009001E000200090009870
:1005C000012843D12348006840F010002149086009
:1005D0000846006820F0030008600846006840F004
:1005E000020008601A484068194948600846406897
:1005F00048600846406840F48060486008464068AB
:1006000020F47C1048600846406840F4E8104860D8
:100610000846006840F08070086000BF0C48006821
:1006200000F000700028F9D00948406820F003006D
:10063000074948600846406840F00200486000BF33
:100640000348406800F00C000828F9D10CBD0000F8
:10065000001002400020024010B51348006840F02E
:1006600001001149086008464068104908400E49D9
:100670004860084600680E4908400B490860084673
:10068000006820F4802008600846406820F4FE00DE
:1006900048604FF41F008860FFF76AFF4FF000606A
:1006A0000449086010BD0000001002400000FFF87F
:1006B000FFFFF6FE08ED00E0FFF730FF0DE0402100
:1006C0000648FFF727FF0648FFF790FE4021034842
:1006D000FFF722FF0248FFF789FEF0E7001801400C
:1006E000FFFF2F00F4060008000000206006000055
:0406F0006C01000891
:0400000508000131BD
:00000001FF
